{
  "contractName": "SupplyChain",
  "abi": [
    {
      "inputs": [],
      "payable": false,
      "stateMutability": "nonpayable",
      "type": "constructor"
    },
    {
      "anonymous": false,
      "inputs": [
        {
          "indexed": false,
          "internalType": "bool",
          "name": "response",
          "type": "bool"
        }
      ],
      "name": "boulangerieSeted",
      "type": "event"
    },
    {
      "anonymous": false,
      "inputs": [
        {
          "indexed": false,
          "internalType": "bool",
          "name": "response",
          "type": "bool"
        }
      ],
      "name": "grossisteSeted",
      "type": "event"
    },
    {
      "anonymous": false,
      "inputs": [
        {
          "indexed": false,
          "internalType": "bool",
          "name": "response",
          "type": "bool"
        }
      ],
      "name": "minoterieSeted",
      "type": "event"
    },
    {
      "anonymous": false,
      "inputs": [
        {
          "indexed": false,
          "internalType": "uint256",
          "name": "index",
          "type": "uint256"
        }
      ],
      "name": "oaicCreated",
      "type": "event"
    },
    {
      "constant": true,
      "inputs": [
        {
          "internalType": "uint256",
          "name": "",
          "type": "uint256"
        }
      ],
      "name": "allProducts",
      "outputs": [
        {
          "internalType": "address",
          "name": "creator",
          "type": "address"
        },
        {
          "internalType": "uint256",
          "name": "productId",
          "type": "uint256"
        },
        {
          "internalType": "string",
          "name": "productName",
          "type": "string"
        },
        {
          "internalType": "uint256",
          "name": "date",
          "type": "uint256"
        },
        {
          "internalType": "enum SupplyChain.StateValue",
          "name": "state",
          "type": "uint8"
        },
        {
          "internalType": "string",
          "name": "temp1",
          "type": "string"
        },
        {
          "internalType": "string",
          "name": "hum1",
          "type": "string"
        },
        {
          "internalType": "string",
          "name": "temp2",
          "type": "string"
        },
        {
          "internalType": "string",
          "name": "hum2",
          "type": "string"
        }
      ],
      "payable": false,
      "stateMutability": "view",
      "type": "function"
    },
    {
      "constant": true,
      "inputs": [],
      "name": "index",
      "outputs": [
        {
          "internalType": "uint256",
          "name": "",
          "type": "uint256"
        }
      ],
      "payable": false,
      "stateMutability": "view",
      "type": "function"
    },
    {
      "constant": true,
      "inputs": [],
      "name": "product",
      "outputs": [
        {
          "internalType": "address",
          "name": "creator",
          "type": "address"
        },
        {
          "internalType": "uint256",
          "name": "productId",
          "type": "uint256"
        },
        {
          "internalType": "string",
          "name": "productName",
          "type": "string"
        },
        {
          "internalType": "uint256",
          "name": "date",
          "type": "uint256"
        },
        {
          "internalType": "enum SupplyChain.StateValue",
          "name": "state",
          "type": "uint8"
        },
        {
          "internalType": "string",
          "name": "temp1",
          "type": "string"
        },
        {
          "internalType": "string",
          "name": "hum1",
          "type": "string"
        },
        {
          "internalType": "string",
          "name": "temp2",
          "type": "string"
        },
        {
          "internalType": "string",
          "name": "hum2",
          "type": "string"
        }
      ],
      "payable": false,
      "stateMutability": "view",
      "type": "function"
    },
    {
      "constant": false,
      "inputs": [
        {
          "internalType": "string",
          "name": "_productName",
          "type": "string"
        }
      ],
      "name": "newItem",
      "outputs": [],
      "payable": false,
      "stateMutability": "nonpayable",
      "type": "function"
    },
    {
      "constant": false,
      "inputs": [
        {
          "internalType": "uint256",
          "name": "_productId",
          "type": "uint256"
        },
        {
          "internalType": "string",
          "name": "_temp1",
          "type": "string"
        },
        {
          "internalType": "string",
          "name": "_hum1",
          "type": "string"
        }
      ],
      "name": "minoterieSet",
      "outputs": [],
      "payable": false,
      "stateMutability": "nonpayable",
      "type": "function"
    },
    {
      "constant": false,
      "inputs": [
        {
          "internalType": "uint256",
          "name": "_productId",
          "type": "uint256"
        },
        {
          "internalType": "string",
          "name": "_temp2",
          "type": "string"
        },
        {
          "internalType": "string",
          "name": "_hum2",
          "type": "string"
        }
      ],
      "name": "grossisteSet",
      "outputs": [],
      "payable": false,
      "stateMutability": "nonpayable",
      "type": "function"
    },
    {
      "constant": false,
      "inputs": [
        {
          "internalType": "uint256",
          "name": "_productId",
          "type": "uint256"
        }
      ],
      "name": "boulangerieSet",
      "outputs": [],
      "payable": false,
      "stateMutability": "nonpayable",
      "type": "function"
    },
    {
      "constant": false,
      "inputs": [
        {
          "internalType": "uint256",
          "name": "_productId",
          "type": "uint256"
        },
        {
          "internalType": "enum SupplyChain.StateValue",
          "name": "_state",
          "type": "uint8"
        }
      ],
      "name": "setState",
      "outputs": [],
      "payable": false,
      "stateMutability": "nonpayable",
      "type": "function"
    },
    {
      "constant": true,
      "inputs": [
        {
          "internalType": "uint256",
          "name": "_productId",
          "type": "uint256"
        }
      ],
      "name": "getProduct",
      "outputs": [
        {
          "internalType": "address",
          "name": "",
          "type": "address"
        },
        {
          "internalType": "uint256",
          "name": "",
          "type": "uint256"
        },
        {
          "internalType": "string",
          "name": "",
          "type": "string"
        },
        {
          "internalType": "uint256",
          "name": "",
          "type": "uint256"
        },
        {
          "internalType": "enum SupplyChain.StateValue",
          "name": "",
          "type": "uint8"
        },
        {
          "internalType": "string",
          "name": "",
          "type": "string"
        },
        {
          "internalType": "string",
          "name": "",
          "type": "string"
        },
        {
          "internalType": "string",
          "name": "",
          "type": "string"
        },
        {
          "internalType": "string",
          "name": "",
          "type": "string"
        }
      ],
      "payable": false,
      "stateMutability": "view",
      "type": "function"
    }
  ],
  "bytecode": "0x608060405234801561001057600080fd5b50630f49264a600a819055506120598061002b6000396000f3fe608060405234801561001057600080fd5b50600436106100935760003560e01c8063965ff5bc11610066578063965ff5bc146102fb578063b84b9a8614610336578063b9db15b414610492578063bf9ce9521461073f578063cfaaef56146109c857610093565b80630df5822b146100985780632986c0e5146101f4578063659b3c4314610212578063965571c9146102cd575b600080fd5b6101f2600480360360608110156100ae57600080fd5b8101908080359060200190929190803590602001906401000000008111156100d557600080fd5b8201836020820111156100e757600080fd5b8035906020019184600183028401116401000000008311171561010957600080fd5b91908080601f016020809104026020016040519081016040528093929190818152602001838380828437600081840152601f19601f8201169050808301925050505050505091929192908035906020019064010000000081111561016c57600080fd5b82018360208201111561017e57600080fd5b803590602001918460018302840111640100000000831117156101a057600080fd5b91908080601f016020809104026020016040519081016040528093929190818152602001838380828437600081840152601f19601f820116905080830192505050505050509192919290505050610c75565b005b6101fc610d15565b6040518082815260200191505060405180910390f35b6102cb6004803603602081101561022857600080fd5b810190808035906020019064010000000081111561024557600080fd5b82018360208201111561025757600080fd5b8035906020019184600183028401116401000000008311171561027957600080fd5b91908080601f016020809104026020016040519081016040528093929190818152602001838380828437600081840152601f19601f820116905080830192505050505050509192919290505050610d1b565b005b6102f9600480360360208110156102e357600080fd5b8101908080359060200190929190505050611148565b005b6103346004803603604081101561031157600080fd5b8101908080359060200190929190803560ff169060200190929190505050611192565b005b6104906004803603606081101561034c57600080fd5b81019080803590602001909291908035906020019064010000000081111561037357600080fd5b82018360208201111561038557600080fd5b803590602001918460018302840111640100000000831117156103a757600080fd5b91908080601f016020809104026020016040519081016040528093929190818152602001838380828437600081840152601f19601f8201169050808301925050505050505091929192908035906020019064010000000081111561040a57600080fd5b82018360208201111561041c57600080fd5b8035906020019184600183028401116401000000008311171561043e57600080fd5b91908080601f016020809104026020016040519081016040528093929190818152602001838380828437600081840152601f19601f8201169050808301925050505050505091929192905050506111cc565b005b6104be600480360360208110156104a857600080fd5b810190808035906020019092919050505061126c565b604051808a73ffffffffffffffffffffffffffffffffffffffff1673ffffffffffffffffffffffffffffffffffffffff1681526020018981526020018060200188815260200187600381111561051057fe5b60ff1681526020018060200180602001806020018060200186810386528d818151815260200191508051906020019080838360005b83811015610560578082015181840152602081019050610545565b50505050905090810190601f16801561058d5780820380516001836020036101000a031916815260200191505b5086810385528a818151815260200191508051906020019080838360005b838110156105c65780820151818401526020810190506105ab565b50505050905090810190601f1680156105f35780820380516001836020036101000a031916815260200191505b50868103845289818151815260200191508051906020019080838360005b8381101561062c578082015181840152602081019050610611565b50505050905090810190601f1680156106595780820380516001836020036101000a031916815260200191505b50868103835288818151815260200191508051906020019080838360005b83811015610692578082015181840152602081019050610677565b50505050905090810190601f1680156106bf5780820380516001836020036101000a031916815260200191505b50868103825287818151815260200191508051906020019080838360005b838110156106f85780820151818401526020810190506106dd565b50505050905090810190601f1680156107255780820380516001836020036101000a031916815260200191505b509e50505050505050505050505050505060405180910390f35b610747611737565b604051808a73ffffffffffffffffffffffffffffffffffffffff1673ffffffffffffffffffffffffffffffffffffffff1681526020018981526020018060200188815260200187600381111561079957fe5b60ff1681526020018060200180602001806020018060200186810386528d818151815260200191508051906020019080838360005b838110156107e95780820151818401526020810190506107ce565b50505050905090810190601f1680156108165780820380516001836020036101000a031916815260200191505b5086810385528a818151815260200191508051906020019080838360005b8381101561084f578082015181840152602081019050610834565b50505050905090810190601f16801561087c5780820380516001836020036101000a031916815260200191505b50868103845289818151815260200191508051906020019080838360005b838110156108b557808201518184015260208101905061089a565b50505050905090810190601f1680156108e25780820380516001836020036101000a031916815260200191505b50868103835288818151815260200191508051906020019080838360005b8381101561091b578082015181840152602081019050610900565b50505050905090810190601f1680156109485780820380516001836020036101000a031916815260200191505b50868103825287818151815260200191508051906020019080838360005b83811015610981578082015181840152602081019050610966565b50505050905090810190601f1680156109ae5780820380516001836020036101000a031916815260200191505b509e50505050505050505050505050505060405180910390f35b6109f4600480360360208110156109de57600080fd5b8101908080359060200190929190505050611a98565b604051808a73ffffffffffffffffffffffffffffffffffffffff1673ffffffffffffffffffffffffffffffffffffffff16815260200189815260200180602001888152602001876003811115610a4657fe5b60ff1681526020018060200180602001806020018060200186810386528d818151815260200191508051906020019080838360005b83811015610a96578082015181840152602081019050610a7b565b50505050905090810190601f168015610ac35780820380516001836020036101000a031916815260200191505b5086810385528a818151815260200191508051906020019080838360005b83811015610afc578082015181840152602081019050610ae1565b50505050905090810190601f168015610b295780820380516001836020036101000a031916815260200191505b50868103845289818151815260200191508051906020019080838360005b83811015610b62578082015181840152602081019050610b47565b50505050905090810190601f168015610b8f5780820380516001836020036101000a031916815260200191505b50868103835288818151815260200191508051906020019080838360005b83811015610bc8578082015181840152602081019050610bad565b50505050905090810190601f168015610bf55780820380516001836020036101000a031916815260200191505b50868103825287818151815260200191508051906020019080838360005b83811015610c2e578082015181840152602081019050610c13565b50505050905090810190601f168015610c5b5780820380516001836020036101000a031916815260200191505b509e50505050505050505050505050505060405180910390f35b816000808581526020019081526020016000206005019080519060200190610c9e929190611e0b565b50806000808581526020019081526020016000206006019080519060200190610cc8929190611e0b565b50610cd4836001611192565b7f684d32667419818c2871830432eeb20ea14c4dc701a12080ac45a33253e34f9a6001604051808215151515815260200191505060405180910390a1505050565b600a5481565b6040518061012001604052803373ffffffffffffffffffffffffffffffffffffffff168152602001600a54815260200182815260200142815260200160006003811115610d6457fe5b81526020016040518060400160405280600181526020017f300000000000000000000000000000000000000000000000000000000000000081525081526020016040518060400160405280600181526020017f300000000000000000000000000000000000000000000000000000000000000081525081526020016040518060400160405280600181526020017f300000000000000000000000000000000000000000000000000000000000000081525081526020016040518060400160405280600181526020017f3000000000000000000000000000000000000000000000000000000000000000815250815250600160008201518160000160006101000a81548173ffffffffffffffffffffffffffffffffffffffff021916908373ffffffffffffffffffffffffffffffffffffffff160217905550602082015181600101556040820151816002019080519060200190610ec2929190611e8b565b506060820151816003015560808201518160040160006101000a81548160ff02191690836003811115610ef157fe5b021790555060a0820151816005019080519060200190610f12929190611e8b565b5060c0820151816006019080519060200190610f2f929190611e8b565b5060e0820151816007019080519060200190610f4c929190611e8b565b50610100820151816008019080519060200190610f6a929190611e8b565b509050507fd59f60fa58972614d3a37dba09e6f22d18dbb824b90e24e67e2bb0d4bf3241b9600a546040518082815260200191505060405180910390a16001600080600a5481526020019081526020016000206000820160009054906101000a900473ffffffffffffffffffffffffffffffffffffffff168160000160006101000a81548173ffffffffffffffffffffffffffffffffffffffff021916908373ffffffffffffffffffffffffffffffffffffffff1602179055506001820154816001015560028201816002019080546001816001161561010002031660029004611055929190611f0b565b50600382015481600301556004820160009054906101000a900460ff168160040160006101000a81548160ff0219169083600381111561109157fe5b0217905550600582018160050190805460018160011615610100020316600290046110bd929190611f0b565b50600682018160060190805460018160011615610100020316600290046110e5929190611f0b565b506007820181600701908054600181600116156101000203166002900461110d929190611f0b565b5060088201816008019080546001816001161561010002031660029004611135929190611f0b565b509050506001600a5401600a8190555050565b611153816003611192565b7fbec1070c943877b601b481a80ae1161e7fafb5fc6d59a9b50824cc72bc0795106001604051808215151515815260200191505060405180910390a150565b8060008084815260200190815260200160002060040160006101000a81548160ff021916908360038111156111c357fe5b02179055505050565b8160008085815260200190815260200160002060070190805190602001906111f5929190611e0b565b5080600080858152602001908152602001600020600801908051906020019061121f929190611e0b565b5061122b836002611192565b7fc14b65492f60075a99bc41ca9217b1d73e7dfc17a17adc4099b5161645d5c6806001604051808215151515815260200191505060405180910390a1505050565b6000806060600080606080606080600a548a106112f1576040517f08c379a000000000000000000000000000000000000000000000000000000000815260040180806020018281038252601b8152602001807f4572726f723a20696e646578203a206f7574206f662062616e6420000000000081525060200191505060405180910390fd5b6112f9611f92565b6000808c8152602001908152602001600020604051806101200160405290816000820160009054906101000a900473ffffffffffffffffffffffffffffffffffffffff1673ffffffffffffffffffffffffffffffffffffffff1673ffffffffffffffffffffffffffffffffffffffff16815260200160018201548152602001600282018054600181600116156101000203166002900480601f0160208091040260200160405190810160405280929190818152602001828054600181600116156101000203166002900480156114105780601f106113e557610100808354040283529160200191611410565b820191906000526020600020905b8154815290600101906020018083116113f357829003601f168201915b50505050508152602001600382015481526020016004820160009054906101000a900460ff16600381111561144157fe5b600381111561144c57fe5b8152602001600582018054600181600116156101000203166002900480601f0160208091040260200160405190810160405280929190818152602001828054600181600116156101000203166002900480156114e95780601f106114be576101008083540402835291602001916114e9565b820191906000526020600020905b8154815290600101906020018083116114cc57829003601f168201915b50505050508152602001600682018054600181600116156101000203166002900480601f01602080910402602001604051908101604052809291908181526020018280546001816001161561010002031660029004801561158b5780601f106115605761010080835404028352916020019161158b565b820191906000526020600020905b81548152906001019060200180831161156e57829003601f168201915b50505050508152602001600782018054600181600116156101000203166002900480601f01602080910402602001604051908101604052809291908181526020018280546001816001161561010002031660029004801561162d5780601f106116025761010080835404028352916020019161162d565b820191906000526020600020905b81548152906001019060200180831161161057829003601f168201915b50505050508152602001600882018054600181600116156101000203166002900480601f0160208091040260200160405190810160405280929190818152602001828054600181600116156101000203166002900480156116cf5780601f106116a4576101008083540402835291602001916116cf565b820191906000526020600020905b8154815290600101906020018083116116b257829003601f168201915b5050505050815250509050806000015181602001518260400151836060015184608001518560a001518660c001518760e00151886101000151869650839350829250819150809050995099509950995099509950995099509950509193959799909294969850565b60018060000160009054906101000a900473ffffffffffffffffffffffffffffffffffffffff1690806001015490806002018054600181600116156101000203166002900480601f0160208091040260200160405190810160405280929190818152602001828054600181600116156101000203166002900480156117fd5780601f106117d2576101008083540402835291602001916117fd565b820191906000526020600020905b8154815290600101906020018083116117e057829003601f168201915b5050505050908060030154908060040160009054906101000a900460ff1690806005018054600181600116156101000203166002900480601f0160208091040260200160405190810160405280929190818152602001828054600181600116156101000203166002900480156118b45780601f10611889576101008083540402835291602001916118b4565b820191906000526020600020905b81548152906001019060200180831161189757829003601f168201915b505050505090806006018054600181600116156101000203166002900480601f0160208091040260200160405190810160405280929190818152602001828054600181600116156101000203166002900480156119525780601f1061192757610100808354040283529160200191611952565b820191906000526020600020905b81548152906001019060200180831161193557829003601f168201915b505050505090806007018054600181600116156101000203166002900480601f0160208091040260200160405190810160405280929190818152602001828054600181600116156101000203166002900480156119f05780601f106119c5576101008083540402835291602001916119f0565b820191906000526020600020905b8154815290600101906020018083116119d357829003601f168201915b505050505090806008018054600181600116156101000203166002900480601f016020809104026020016040519081016040528092919081815260200182805460018160011615610100020316600290048015611a8e5780601f10611a6357610100808354040283529160200191611a8e565b820191906000526020600020905b815481529060010190602001808311611a7157829003601f168201915b5050505050905089565b60006020528060005260406000206000915090508060000160009054906101000a900473ffffffffffffffffffffffffffffffffffffffff1690806001015490806002018054600181600116156101000203166002900480601f016020809104026020016040519081016040528092919081815260200182805460018160011615610100020316600290048015611b705780601f10611b4557610100808354040283529160200191611b70565b820191906000526020600020905b815481529060010190602001808311611b5357829003601f168201915b5050505050908060030154908060040160009054906101000a900460ff1690806005018054600181600116156101000203166002900480601f016020809104026020016040519081016040528092919081815260200182805460018160011615610100020316600290048015611c275780601f10611bfc57610100808354040283529160200191611c27565b820191906000526020600020905b815481529060010190602001808311611c0a57829003601f168201915b505050505090806006018054600181600116156101000203166002900480601f016020809104026020016040519081016040528092919081815260200182805460018160011615610100020316600290048015611cc55780601f10611c9a57610100808354040283529160200191611cc5565b820191906000526020600020905b815481529060010190602001808311611ca857829003601f168201915b505050505090806007018054600181600116156101000203166002900480601f016020809104026020016040519081016040528092919081815260200182805460018160011615610100020316600290048015611d635780601f10611d3857610100808354040283529160200191611d63565b820191906000526020600020905b815481529060010190602001808311611d4657829003601f168201915b505050505090806008018054600181600116156101000203166002900480601f016020809104026020016040519081016040528092919081815260200182805460018160011615610100020316600290048015611e015780601f10611dd657610100808354040283529160200191611e01565b820191906000526020600020905b815481529060010190602001808311611de457829003601f168201915b5050505050905089565b828054600181600116156101000203166002900490600052602060002090601f016020900481019282601f10611e4c57805160ff1916838001178555611e7a565b82800160010185558215611e7a579182015b82811115611e79578251825591602001919060010190611e5e565b5b509050611e879190611fff565b5090565b828054600181600116156101000203166002900490600052602060002090601f016020900481019282601f10611ecc57805160ff1916838001178555611efa565b82800160010185558215611efa579182015b82811115611ef9578251825591602001919060010190611ede565b5b509050611f079190611fff565b5090565b828054600181600116156101000203166002900490600052602060002090601f016020900481019282601f10611f445780548555611f81565b82800160010185558215611f8157600052602060002091601f016020900482015b82811115611f80578254825591600101919060010190611f65565b5b509050611f8e9190611fff565b5090565b604051806101200160405280600073ffffffffffffffffffffffffffffffffffffffff16815260200160008152602001606081526020016000815260200160006003811115611fdd57fe5b8152602001606081526020016060815260200160608152602001606081525090565b61202191905b8082111561201d576000816000905550600101612005565b5090565b9056fea265627a7a72315820bbd162d42f11c24627471f37ab9342b1e1cb774c5f32b23130129e80e84e9b7d64736f6c63430005100032",
  "source": "//SPDX-License-Identifier: MIT\npragma solidity >= 0.5.0 < 0.7.0;\n\ncontract SupplyChain{\n    \n    enum StateValue {\n        Oaic, \n        Minoterie, \n        Grossiste, \n        Boulangerie\n    }\n\n    struct Product{\n        address creator;\n        uint256 productId;\n        string productName;\n        uint256 date;\n        StateValue state;\n        string temp1;\n        string hum1;\n        string temp2;\n        string hum2;\n    }\n    mapping(uint => Product) public allProducts;\n    Product public product;\n    uint256 public index;\n\n    // Events\n    event oaicCreated(uint256 index);\n    event minoterieSeted(bool response);\n    event grossisteSeted(bool response);\n    event boulangerieSeted(bool response);\n\n    constructor () public {\n        // We begin with that number juste for the demonstration purposes \n        index = 256452170; \n    }\n\n    // Create a new product from the OAIC\n    function newItem(string memory _productName) public {\n        product = Product( msg.sender, index, _productName, now, StateValue.Oaic, \"0\", \"0\", \"0\", \"0\" );\n        emit oaicCreated(index);\n        allProducts[index] = product;\n        index = index + 1;\n    }\n    \n\n    function minoterieSet(uint256 _productId, string memory _temp1, string memory _hum1) public {\n        allProducts[_productId].temp1 = _temp1;\n        allProducts[_productId].hum1 = _hum1;\n        setState(_productId, StateValue.Minoterie);\n        emit minoterieSeted(true);\n    }\n\n    function grossisteSet(uint256 _productId, string memory _temp2, string memory _hum2) public {\n        allProducts[_productId].temp2 = _temp2;\n        allProducts[_productId].hum2 = _hum2;\n        setState(_productId, StateValue.Grossiste);\n        emit grossisteSeted(true);\n    }\n\n    function boulangerieSet(uint256 _productId) public {\n        setState(_productId, StateValue.Boulangerie);\n        emit boulangerieSeted(true);\n    }\n\n    \n    function setState(uint256 _productId, StateValue _state) public {\n        allProducts[_productId].state = _state;\n    }\n    \n    function getProduct(uint256 _productId) public view returns (\n            address, \n            uint256, \n            string memory, \n            uint256, \n            StateValue, \n            string memory, \n            string memory, \n            string memory, \n            string memory){\n            require(_productId < index, \"Error: index : out of band \");\n            Product memory p = allProducts[_productId];\n        return (\n                p.creator,\n                p.productId,\n                p.productName,\n                p.date,\n                p.state, \n                p.temp1,\n                p.hum1,\n                p.temp2,\n                p.hum2\n            );\n    }   \n}",
  "sourcePath": "C:/Users/YoucefMegoura/Desktop/PFE/contracts/SupplyChain.sol",
  "compiler": {
    "name": "solc",
    "version": "0.5.16+commit.9c3226ce.Emscripten.clang"
  },
  "schemaVersion": "3.2.3",
  "updatedAt": "2020-09-16T22:58:27.208Z",
  "networkType": "ethereum",
  "devdoc": {
    "methods": {}
  },
  "userdoc": {
    "methods": {}
  }
}